{
  "contractName": "MedicalRecords",
  "abi": [
    {
      "inputs": [
        {
          "internalType": "string",
          "name": "userId",
          "type": "string"
        },
        {
          "internalType": "string",
          "name": "firstName",
          "type": "string"
        },
        {
          "internalType": "string",
          "name": "lastName",
          "type": "string"
        },
        {
          "internalType": "string",
          "name": "email",
          "type": "string"
        },
        {
          "internalType": "string",
          "name": "dateOfBirth",
          "type": "string"
        },
        {
          "internalType": "string",
          "name": "city",
          "type": "string"
        },
        {
          "internalType": "string",
          "name": "userAddress",
          "type": "string"
        },
        {
          "internalType": "string",
          "name": "role",
          "type": "string"
        },
        {
          "internalType": "string",
          "name": "country",
          "type": "string"
        },
        {
          "internalType": "string",
          "name": "gender",
          "type": "string"
        },
        {
          "internalType": "string",
          "name": "phoneNumbers",
          "type": "string"
        }
      ],
      "name": "addUser",
      "outputs": [],
      "stateMutability": "nonpayable",
      "type": "function"
    },
    {
      "inputs": [
        {
          "internalType": "string",
          "name": "userId",
          "type": "string"
        }
      ],
      "name": "getUser",
      "outputs": [
        {
          "components": [
            {
              "internalType": "string",
              "name": "firstName",
              "type": "string"
            },
            {
              "internalType": "string",
              "name": "lastName",
              "type": "string"
            },
            {
              "internalType": "string",
              "name": "email",
              "type": "string"
            },
            {
              "internalType": "string",
              "name": "dateOfBirth",
              "type": "string"
            },
            {
              "internalType": "string",
              "name": "city",
              "type": "string"
            },
            {
              "internalType": "string",
              "name": "userAddress",
              "type": "string"
            },
            {
              "internalType": "string",
              "name": "role",
              "type": "string"
            },
            {
              "internalType": "string",
              "name": "country",
              "type": "string"
            },
            {
              "internalType": "string",
              "name": "gender",
              "type": "string"
            },
            {
              "internalType": "string",
              "name": "phoneNumbers",
              "type": "string"
            }
          ],
          "internalType": "struct MedicalRecords.User",
          "name": "",
          "type": "tuple"
        }
      ],
      "stateMutability": "view",
      "type": "function",
      "constant": true
    },
    {
      "inputs": [
        {
          "internalType": "string",
          "name": "userId",
          "type": "string"
        },
        {
          "internalType": "string",
          "name": "patientId",
          "type": "string"
        },
        {
          "internalType": "string",
          "name": "treatmentName",
          "type": "string"
        },
        {
          "internalType": "string",
          "name": "diseaseName",
          "type": "string"
        },
        {
          "internalType": "string",
          "name": "doctorName",
          "type": "string"
        },
        {
          "internalType": "string",
          "name": "treatmentDate",
          "type": "string"
        },
        {
          "internalType": "string",
          "name": "guardianName",
          "type": "string"
        },
        {
          "internalType": "string",
          "name": "guardianEmail",
          "type": "string"
        },
        {
          "internalType": "string",
          "name": "guardianPhone",
          "type": "string"
        },
        {
          "internalType": "string",
          "name": "guardianRelation",
          "type": "string"
        }
      ],
      "name": "addPatient",
      "outputs": [],
      "stateMutability": "nonpayable",
      "type": "function"
    },
    {
      "inputs": [
        {
          "internalType": "string",
          "name": "patientId",
          "type": "string"
        },
        {
          "internalType": "string",
          "name": "treatmentName",
          "type": "string"
        },
        {
          "internalType": "string",
          "name": "diseaseName",
          "type": "string"
        },
        {
          "internalType": "string",
          "name": "doctorName",
          "type": "string"
        },
        {
          "internalType": "string",
          "name": "treatmentDate",
          "type": "string"
        }
      ],
      "name": "addTreatmentToPatient",
      "outputs": [],
      "stateMutability": "nonpayable",
      "type": "function"
    },
    {
      "inputs": [
        {
          "internalType": "string",
          "name": "patientId",
          "type": "string"
        },
        {
          "internalType": "string",
          "name": "guardianName",
          "type": "string"
        },
        {
          "internalType": "string",
          "name": "guardianEmail",
          "type": "string"
        },
        {
          "internalType": "string",
          "name": "guardianPhone",
          "type": "string"
        },
        {
          "internalType": "string",
          "name": "guardianRelation",
          "type": "string"
        }
      ],
      "name": "addGuardianToPatient",
      "outputs": [],
      "stateMutability": "nonpayable",
      "type": "function"
    },
    {
      "inputs": [
        {
          "internalType": "string",
          "name": "patientId",
          "type": "string"
        }
      ],
      "name": "getPatient",
      "outputs": [
        {
          "components": [
            {
              "internalType": "string",
              "name": "userId",
              "type": "string"
            },
            {
              "components": [
                {
                  "internalType": "string",
                  "name": "name",
                  "type": "string"
                },
                {
                  "internalType": "string",
                  "name": "diseaseName",
                  "type": "string"
                },
                {
                  "internalType": "string",
                  "name": "doctorName",
                  "type": "string"
                },
                {
                  "internalType": "string",
                  "name": "treatmentDate",
                  "type": "string"
                }
              ],
              "internalType": "struct MedicalRecords.Treatment[]",
              "name": "treatmentHistory",
              "type": "tuple[]"
            },
            {
              "components": [
                {
                  "internalType": "string",
                  "name": "name",
                  "type": "string"
                },
                {
                  "internalType": "string",
                  "name": "email",
                  "type": "string"
                },
                {
                  "internalType": "string",
                  "name": "phone",
                  "type": "string"
                },
                {
                  "internalType": "string",
                  "name": "relation",
                  "type": "string"
                }
              ],
              "internalType": "struct MedicalRecords.Guardian[]",
              "name": "guardianInfo",
              "type": "tuple[]"
            }
          ],
          "internalType": "struct MedicalRecords.Patient",
          "name": "",
          "type": "tuple"
        }
      ],
      "stateMutability": "view",
      "type": "function",
      "constant": true
    },
    {
      "inputs": [],
      "name": "getAllUsers",
      "outputs": [
        {
          "components": [
            {
              "internalType": "string",
              "name": "firstName",
              "type": "string"
            },
            {
              "internalType": "string",
              "name": "lastName",
              "type": "string"
            },
            {
              "internalType": "string",
              "name": "email",
              "type": "string"
            },
            {
              "internalType": "string",
              "name": "dateOfBirth",
              "type": "string"
            },
            {
              "internalType": "string",
              "name": "city",
              "type": "string"
            },
            {
              "internalType": "string",
              "name": "userAddress",
              "type": "string"
            },
            {
              "internalType": "string",
              "name": "role",
              "type": "string"
            },
            {
              "internalType": "string",
              "name": "country",
              "type": "string"
            },
            {
              "internalType": "string",
              "name": "gender",
              "type": "string"
            },
            {
              "internalType": "string",
              "name": "phoneNumbers",
              "type": "string"
            }
          ],
          "internalType": "struct MedicalRecords.User[]",
          "name": "",
          "type": "tuple[]"
        }
      ],
      "stateMutability": "view",
      "type": "function",
      "constant": true
    },
    {
      "inputs": [],
      "name": "getAllPatients",
      "outputs": [
        {
          "components": [
            {
              "internalType": "string",
              "name": "userId",
              "type": "string"
            },
            {
              "components": [
                {
                  "internalType": "string",
                  "name": "name",
                  "type": "string"
                },
                {
                  "internalType": "string",
                  "name": "diseaseName",
                  "type": "string"
                },
                {
                  "internalType": "string",
                  "name": "doctorName",
                  "type": "string"
                },
                {
                  "internalType": "string",
                  "name": "treatmentDate",
                  "type": "string"
                }
              ],
              "internalType": "struct MedicalRecords.Treatment[]",
              "name": "treatmentHistory",
              "type": "tuple[]"
            },
            {
              "components": [
                {
                  "internalType": "string",
                  "name": "name",
                  "type": "string"
                },
                {
                  "internalType": "string",
                  "name": "email",
                  "type": "string"
                },
                {
                  "internalType": "string",
                  "name": "phone",
                  "type": "string"
                },
                {
                  "internalType": "string",
                  "name": "relation",
                  "type": "string"
                }
              ],
              "internalType": "struct MedicalRecords.Guardian[]",
              "name": "guardianInfo",
              "type": "tuple[]"
            }
          ],
          "internalType": "struct MedicalRecords.Patient[]",
          "name": "",
          "type": "tuple[]"
        }
      ],
      "stateMutability": "view",
      "type": "function",
      "constant": true
    },
    {
      "inputs": [
        {
          "internalType": "string",
          "name": "userId",
          "type": "string"
        }
      ],
      "name": "userExists",
      "outputs": [
        {
          "internalType": "bool",
          "name": "",
          "type": "bool"
        }
      ],
      "stateMutability": "view",
      "type": "function",
      "constant": true
    }
  ],
  "bytecode": "0x608060405234801561001057600080fd5b50613498806100206000396000f3fe608060405234801561001057600080fd5b50600436106100935760003560e01c80634e4e6e2d116100665780634e4e6e2d1461011e578063d452d4ae1461013a578063e2842d7914610156578063e79a7a2e14610174578063fddc968e146101a457610093565b806318a231a9146100985780631ed6ad1b146100b6578063311cc831146100d257806331feb671146100ee575b600080fd5b6100a06101d4565b6040516100ad9190612637565b60405180910390f35b6100d060048036038101906100cb91906127a2565b6108a2565b005b6100ec60048036038101906100e79190612999565b610a19565b005b61010860048036038101906101039190612bc1565b610c36565b6040516101159190612d23565b60405180910390f35b61013860048036038101906101339190612d45565b611223565b005b610154600480360381019061014f9190612d45565b611311565b005b61015e6113ff565b60405161016b9190613027565b60405180910390f35b61018e60048036038101906101899190612bc1565b611aa2565b60405161019b91906130a7565b60405180910390f35b6101be60048036038101906101b99190612bc1565b6120ba565b6040516101cb91906130e4565b60405180910390f35b6060600060038054905067ffffffffffffffff8111156101f7576101f6612677565b5b60405190808252806020026020018201604052801561023057816020015b61021d6120f3565b8152602001906001900390816102155790505b50905060005b60038054905081101561089a57600160038281548110610259576102586130ff565b5b90600052602060002001604051610270919061322d565b90815260200160405180910390206040518060600160405290816000820180546102999061315d565b80601f01602080910402602001604051908101604052809291908181526020018280546102c59061315d565b80156103125780601f106102e757610100808354040283529160200191610312565b820191906000526020600020905b8154815290600101906020018083116102f557829003601f168201915b5050505050815260200160018201805480602002602001604051908101604052809291908181526020016000905b828210156105ba57838290600052602060002090600402016040518060800160405290816000820180546103739061315d565b80601f016020809104026020016040519081016040528092919081815260200182805461039f9061315d565b80156103ec5780601f106103c1576101008083540402835291602001916103ec565b820191906000526020600020905b8154815290600101906020018083116103cf57829003601f168201915b505050505081526020016001820180546104059061315d565b80601f01602080910402602001604051908101604052809291908181526020018280546104319061315d565b801561047e5780601f106104535761010080835404028352916020019161047e565b820191906000526020600020905b81548152906001019060200180831161046157829003601f168201915b505050505081526020016002820180546104979061315d565b80601f01602080910402602001604051908101604052809291908181526020018280546104c39061315d565b80156105105780601f106104e557610100808354040283529160200191610510565b820191906000526020600020905b8154815290600101906020018083116104f357829003601f168201915b505050505081526020016003820180546105299061315d565b80601f01602080910402602001604051908101604052809291908181526020018280546105559061315d565b80156105a25780601f10610577576101008083540402835291602001916105a2565b820191906000526020600020905b81548152906001019060200180831161058557829003601f168201915b50505050508152505081526020019060010190610340565b50505050815260200160028201805480602002602001604051908101604052809291908181526020016000905b82821015610861578382906000526020600020906004020160405180608001604052908160008201805461061a9061315d565b80601f01602080910402602001604051908101604052809291908181526020018280546106469061315d565b80156106935780601f1061066857610100808354040283529160200191610693565b820191906000526020600020905b81548152906001019060200180831161067657829003601f168201915b505050505081526020016001820180546106ac9061315d565b80601f01602080910402602001604051908101604052809291908181526020018280546106d89061315d565b80156107255780601f106106fa57610100808354040283529160200191610725565b820191906000526020600020905b81548152906001019060200180831161070857829003601f168201915b5050505050815260200160028201805461073e9061315d565b80601f016020809104026020016040519081016040528092919081815260200182805461076a9061315d565b80156107b75780601f1061078c576101008083540402835291602001916107b7565b820191906000526020600020905b81548152906001019060200180831161079a57829003601f168201915b505050505081526020016003820180546107d09061315d565b80601f01602080910402602001604051908101604052809291908181526020018280546107fc9061315d565b80156108495780601f1061081e57610100808354040283529160200191610849565b820191906000526020600020905b81548152906001019060200180831161082c57829003601f168201915b505050505081525050815260200190600101906105e7565b505050508152505082828151811061087c5761087b6130ff565b5b602002602001018190525080806108929061327d565b915050610236565b508091505090565b600060018b6040516108b491906132f6565b908152602001604051809103902060000180546108d09061315d565b905014610912576040517f08c379a00000000000000000000000000000000000000000000000000000000081526004016109099061336a565b60405180910390fd5b6000808b60405161092391906132f6565b9081526020016040518091039020600001805461093f9061315d565b905011610981576040517f08c379a0000000000000000000000000000000000000000000000000000000008152600401610978906133d6565b60405180910390fd5b8960018b60405161099291906132f6565b908152602001604051809103902060000190805190602001906109b6929190612114565b506109c48a89898989611311565b6109d18a85858585611223565b600389908060018154018082558091505060019003906000526020600020016000909190919091509080519060200190610a0c929190612114565b5050505050505050505050565b610a228b6120ba565b15610a62576040517f08c379a0000000000000000000000000000000000000000000000000000000008152600401610a5990613442565b60405180910390fd5b6040518061014001604052808b81526020018a81526020018981526020018881526020018781526020018681526020018581526020018481526020018381526020018281525060008c604051610ab891906132f6565b90815260200160405180910390206000820151816000019080519060200190610ae2929190612114565b506020820151816001019080519060200190610aff929190612114565b506040820151816002019080519060200190610b1c929190612114565b506060820151816003019080519060200190610b39929190612114565b506080820151816004019080519060200190610b56929190612114565b5060a0820151816005019080519060200190610b73929190612114565b5060c0820151816006019080519060200190610b90929190612114565b5060e0820151816007019080519060200190610bad929190612114565b50610100820151816008019080519060200190610bcb929190612114565b50610120820151816009019080519060200190610be9929190612114565b5090505060028b908060018154018082558091505060019003906000526020600020016000909190919091509080519060200190610c28929190612114565b505050505050505050505050565b610c3e61219a565b600082604051610c4e91906132f6565b908152602001604051809103902060405180610140016040529081600082018054610c789061315d565b80601f0160208091040260200160405190810160405280929190818152602001828054610ca49061315d565b8015610cf15780601f10610cc657610100808354040283529160200191610cf1565b820191906000526020600020905b815481529060010190602001808311610cd457829003601f168201915b50505050508152602001600182018054610d0a9061315d565b80601f0160208091040260200160405190810160405280929190818152602001828054610d369061315d565b8015610d835780601f10610d5857610100808354040283529160200191610d83565b820191906000526020600020905b815481529060010190602001808311610d6657829003601f168201915b50505050508152602001600282018054610d9c9061315d565b80601f0160208091040260200160405190810160405280929190818152602001828054610dc89061315d565b8015610e155780601f10610dea57610100808354040283529160200191610e15565b820191906000526020600020905b815481529060010190602001808311610df857829003601f168201915b50505050508152602001600382018054610e2e9061315d565b80601f0160208091040260200160405190810160405280929190818152602001828054610e5a9061315d565b8015610ea75780601f10610e7c57610100808354040283529160200191610ea7565b820191906000526020600020905b815481529060010190602001808311610e8a57829003601f168201915b50505050508152602001600482018054610ec09061315d565b80601f0160208091040260200160405190810160405280929190818152602001828054610eec9061315d565b8015610f395780601f10610f0e57610100808354040283529160200191610f39565b820191906000526020600020905b815481529060010190602001808311610f1c57829003601f168201915b50505050508152602001600582018054610f529061315d565b80601f0160208091040260200160405190810160405280929190818152602001828054610f7e9061315d565b8015610fcb5780601f10610fa057610100808354040283529160200191610fcb565b820191906000526020600020905b815481529060010190602001808311610fae57829003601f168201915b50505050508152602001600682018054610fe49061315d565b80601f01602080910402602001604051908101604052809291908181526020018280546110109061315d565b801561105d5780601f106110325761010080835404028352916020019161105d565b820191906000526020600020905b81548152906001019060200180831161104057829003601f168201915b505050505081526020016007820180546110769061315d565b80601f01602080910402602001604051908101604052809291908181526020018280546110a29061315d565b80156110ef5780601f106110c4576101008083540402835291602001916110ef565b820191906000526020600020905b8154815290600101906020018083116110d257829003601f168201915b505050505081526020016008820180546111089061315d565b80601f01602080910402602001604051908101604052809291908181526020018280546111349061315d565b80156111815780601f1061115657610100808354040283529160200191611181565b820191906000526020600020905b81548152906001019060200180831161116457829003601f168201915b5050505050815260200160098201805461119a9061315d565b80601f01602080910402602001604051908101604052809291908181526020018280546111c69061315d565b80156112135780601f106111e857610100808354040283529160200191611213565b820191906000526020600020905b8154815290600101906020018083116111f657829003601f168201915b5050505050815250509050919050565b6000604051806080016040528086815260200185815260200184815260200183815250905060018660405161125891906132f6565b908152602001604051809103902060020181908060018154018082558091505060019003906000526020600020906004020160009091909190915060008201518160000190805190602001906112af929190612114565b5060208201518160010190805190602001906112cc929190612114565b5060408201518160020190805190602001906112e9929190612114565b506060820151816003019080519060200190611306929190612114565b505050505050505050565b6000604051806080016040528086815260200185815260200184815260200183815250905060018660405161134691906132f6565b9081526020016040518091039020600101819080600181540180825580915050600190039060005260206000209060040201600090919091909150600082015181600001908051906020019061139d929190612114565b5060208201518160010190805190602001906113ba929190612114565b5060408201518160020190805190602001906113d7929190612114565b5060608201518160030190805190602001906113f4929190612114565b505050505050505050565b6060600060028054905067ffffffffffffffff81111561142257611421612677565b5b60405190808252806020026020018201604052801561145b57816020015b61144861219a565b8152602001906001900390816114405790505b50905060005b600280549050811015611a9a57600060028281548110611484576114836130ff565b5b9060005260206000200160405161149b919061322d565b9081526020016040518091039020604051806101400160405290816000820180546114c59061315d565b80601f01602080910402602001604051908101604052809291908181526020018280546114f19061315d565b801561153e5780601f106115135761010080835404028352916020019161153e565b820191906000526020600020905b81548152906001019060200180831161152157829003601f168201915b505050505081526020016001820180546115579061315d565b80601f01602080910402602001604051908101604052809291908181526020018280546115839061315d565b80156115d05780601f106115a5576101008083540402835291602001916115d0565b820191906000526020600020905b8154815290600101906020018083116115b357829003601f168201915b505050505081526020016002820180546115e99061315d565b80601f01602080910402602001604051908101604052809291908181526020018280546116159061315d565b80156116625780601f1061163757610100808354040283529160200191611662565b820191906000526020600020905b81548152906001019060200180831161164557829003601f168201915b5050505050815260200160038201805461167b9061315d565b80601f01602080910402602001604051908101604052809291908181526020018280546116a79061315d565b80156116f45780601f106116c9576101008083540402835291602001916116f4565b820191906000526020600020905b8154815290600101906020018083116116d757829003601f168201915b5050505050815260200160048201805461170d9061315d565b80601f01602080910402602001604051908101604052809291908181526020018280546117399061315d565b80156117865780601f1061175b57610100808354040283529160200191611786565b820191906000526020600020905b81548152906001019060200180831161176957829003601f168201915b5050505050815260200160058201805461179f9061315d565b80601f01602080910402602001604051908101604052809291908181526020018280546117cb9061315d565b80156118185780601f106117ed57610100808354040283529160200191611818565b820191906000526020600020905b8154815290600101906020018083116117fb57829003601f168201915b505050505081526020016006820180546118319061315d565b80601f016020809104026020016040519081016040528092919081815260200182805461185d9061315d565b80156118aa5780601f1061187f576101008083540402835291602001916118aa565b820191906000526020600020905b81548152906001019060200180831161188d57829003601f168201915b505050505081526020016007820180546118c39061315d565b80601f01602080910402602001604051908101604052809291908181526020018280546118ef9061315d565b801561193c5780601f106119115761010080835404028352916020019161193c565b820191906000526020600020905b81548152906001019060200180831161191f57829003601f168201915b505050505081526020016008820180546119559061315d565b80601f01602080910402602001604051908101604052809291908181526020018280546119819061315d565b80156119ce5780601f106119a3576101008083540402835291602001916119ce565b820191906000526020600020905b8154815290600101906020018083116119b157829003601f168201915b505050505081526020016009820180546119e79061315d565b80601f0160208091040260200160405190810160405280929190818152602001828054611a139061315d565b8015611a605780601f10611a3557610100808354040283529160200191611a60565b820191906000526020600020905b815481529060010190602001808311611a4357829003601f168201915b505050505081525050828281518110611a7c57611a7b6130ff565b5b60200260200101819052508080611a929061327d565b915050611461565b508091505090565b611aaa6120f3565b600182604051611aba91906132f6565b9081526020016040518091039020604051806060016040529081600082018054611ae39061315d565b80601f0160208091040260200160405190810160405280929190818152602001828054611b0f9061315d565b8015611b5c5780601f10611b3157610100808354040283529160200191611b5c565b820191906000526020600020905b815481529060010190602001808311611b3f57829003601f168201915b5050505050815260200160018201805480602002602001604051908101604052809291908181526020016000905b82821015611e045783829060005260206000209060040201604051806080016040529081600082018054611bbd9061315d565b80601f0160208091040260200160405190810160405280929190818152602001828054611be99061315d565b8015611c365780601f10611c0b57610100808354040283529160200191611c36565b820191906000526020600020905b815481529060010190602001808311611c1957829003601f168201915b50505050508152602001600182018054611c4f9061315d565b80601f0160208091040260200160405190810160405280929190818152602001828054611c7b9061315d565b8015611cc85780601f10611c9d57610100808354040283529160200191611cc8565b820191906000526020600020905b815481529060010190602001808311611cab57829003601f168201915b50505050508152602001600282018054611ce19061315d565b80601f0160208091040260200160405190810160405280929190818152602001828054611d0d9061315d565b8015611d5a5780601f10611d2f57610100808354040283529160200191611d5a565b820191906000526020600020905b815481529060010190602001808311611d3d57829003601f168201915b50505050508152602001600382018054611d739061315d565b80601f0160208091040260200160405190810160405280929190818152602001828054611d9f9061315d565b8015611dec5780601f10611dc157610100808354040283529160200191611dec565b820191906000526020600020905b815481529060010190602001808311611dcf57829003601f168201915b50505050508152505081526020019060010190611b8a565b50505050815260200160028201805480602002602001604051908101604052809291908181526020016000905b828210156120ab5783829060005260206000209060040201604051806080016040529081600082018054611e649061315d565b80601f0160208091040260200160405190810160405280929190818152602001828054611e909061315d565b8015611edd5780601f10611eb257610100808354040283529160200191611edd565b820191906000526020600020905b815481529060010190602001808311611ec057829003601f168201915b50505050508152602001600182018054611ef69061315d565b80601f0160208091040260200160405190810160405280929190818152602001828054611f229061315d565b8015611f6f5780601f10611f4457610100808354040283529160200191611f6f565b820191906000526020600020905b815481529060010190602001808311611f5257829003601f168201915b50505050508152602001600282018054611f889061315d565b80601f0160208091040260200160405190810160405280929190818152602001828054611fb49061315d565b80156120015780601f10611fd657610100808354040283529160200191612001565b820191906000526020600020905b815481529060010190602001808311611fe457829003601f168201915b5050505050815260200160038201805461201a9061315d565b80601f01602080910402602001604051908101604052809291908181526020018280546120469061315d565b80156120935780601f1061206857610100808354040283529160200191612093565b820191906000526020600020905b81548152906001019060200180831161207657829003601f168201915b50505050508152505081526020019060010190611e31565b50505050815250509050919050565b6000806000836040516120cd91906132f6565b908152602001604051809103902060000180546120e99061315d565b9050119050919050565b60405180606001604052806060815260200160608152602001606081525090565b8280546121209061315d565b90600052602060002090601f0160209004810192826121425760008555612189565b82601f1061215b57805160ff1916838001178555612189565b82800160010185558215612189579182015b8281111561218857825182559160200191906001019061216d565b5b50905061219691906121ed565b5090565b604051806101400160405280606081526020016060815260200160608152602001606081526020016060815260200160608152602001606081526020016060815260200160608152602001606081525090565b5b808211156122065760008160009055506001016121ee565b5090565b600081519050919050565b600082825260208201905092915050565b6000819050602082019050919050565b600081519050919050565b600082825260208201905092915050565b60005b83811015612270578082015181840152602081019050612255565b8381111561227f576000848401525b50505050565b6000601f19601f8301169050919050565b60006122a182612236565b6122ab8185612241565b93506122bb818560208601612252565b6122c481612285565b840191505092915050565b600081519050919050565b600082825260208201905092915050565b6000819050602082019050919050565b600060808301600083015184820360008601526123188282612296565b915050602083015184820360208601526123328282612296565b9150506040830151848203604086015261234c8282612296565b915050606083015184820360608601526123668282612296565b9150508091505092915050565b600061237f83836122fb565b905092915050565b6000602082019050919050565b600061239f826122cf565b6123a981856122da565b9350836020820285016123bb856122eb565b8060005b858110156123f757848403895281516123d88582612373565b94506123e383612387565b925060208a019950506001810190506123bf565b50829750879550505050505092915050565b600081519050919050565b600082825260208201905092915050565b6000819050602082019050919050565b600060808301600083015184820360008601526124528282612296565b9150506020830151848203602086015261246c8282612296565b915050604083015184820360408601526124868282612296565b915050606083015184820360608601526124a08282612296565b9150508091505092915050565b60006124b98383612435565b905092915050565b6000602082019050919050565b60006124d982612409565b6124e38185612414565b9350836020820285016124f585612425565b8060005b85811015612531578484038952815161251285826124ad565b945061251d836124c1565b925060208a019950506001810190506124f9565b50829750879550505050505092915050565b600060608301600083015184820360008601526125608282612296565b9150506020830151848203602086015261257a8282612394565b9150506040830151848203604086015261259482826124ce565b9150508091505092915050565b60006125ad8383612543565b905092915050565b6000602082019050919050565b60006125cd8261220a565b6125d78185612215565b9350836020820285016125e985612226565b8060005b85811015612625578484038952815161260685826125a1565b9450612611836125b5565b925060208a019950506001810190506125ed565b50829750879550505050505092915050565b6000602082019050818103600083015261265181846125c2565b905092915050565b6000604051905090565b600080fd5b600080fd5b600080fd5b600080fd5b7f4e487b7100000000000000000000000000000000000000000000000000000000600052604160045260246000fd5b6126af82612285565b810181811067ffffffffffffffff821117156126ce576126cd612677565b5b80604052505050565b60006126e1612659565b90506126ed82826126a6565b919050565b600067ffffffffffffffff82111561270d5761270c612677565b5b61271682612285565b9050602081019050919050565b82818337600083830152505050565b6000612745612740846126f2565b6126d7565b90508281526020810184848401111561276157612760612672565b5b61276c848285612723565b509392505050565b600082601f8301126127895761278861266d565b5b8135612799848260208601612732565b91505092915050565b6000806000806000806000806000806101408b8d0312156127c6576127c5612663565b5b60008b013567ffffffffffffffff8111156127e4576127e3612668565b5b6127f08d828e01612774565b9a505060208b013567ffffffffffffffff81111561281157612810612668565b5b61281d8d828e01612774565b99505060408b013567ffffffffffffffff81111561283e5761283d612668565b5b61284a8d828e01612774565b98505060608b013567ffffffffffffffff81111561286b5761286a612668565b5b6128778d828e01612774565b97505060808b013567ffffffffffffffff81111561289857612897612668565b5b6128a48d828e01612774565b96505060a08b013567ffffffffffffffff8111156128c5576128c4612668565b5b6128d18d828e01612774565b95505060c08b013567ffffffffffffffff8111156128f2576128f1612668565b5b6128fe8d828e01612774565b94505060e08b013567ffffffffffffffff81111561291f5761291e612668565b5b61292b8d828e01612774565b9350506101008b013567ffffffffffffffff81111561294d5761294c612668565b5b6129598d828e01612774565b9250506101208b013567ffffffffffffffff81111561297b5761297a612668565b5b6129878d828e01612774565b9150509295989b9194979a5092959850565b60008060008060008060008060008060006101608c8e0312156129bf576129be612663565b5b60008c013567ffffffffffffffff8111156129dd576129dc612668565b5b6129e98e828f01612774565b9b505060208c013567ffffffffffffffff811115612a0a57612a09612668565b5b612a168e828f01612774565b9a505060408c013567ffffffffffffffff811115612a3757612a36612668565b5b612a438e828f01612774565b99505060608c013567ffffffffffffffff811115612a6457612a63612668565b5b612a708e828f01612774565b98505060808c013567ffffffffffffffff811115612a9157612a90612668565b5b612a9d8e828f01612774565b97505060a08c013567ffffffffffffffff811115612abe57612abd612668565b5b612aca8e828f01612774565b96505060c08c013567ffffffffffffffff811115612aeb57612aea612668565b5b612af78e828f01612774565b95505060e08c013567ffffffffffffffff811115612b1857612b17612668565b5b612b248e828f01612774565b9450506101008c013567ffffffffffffffff811115612b4657612b45612668565b5b612b528e828f01612774565b9350506101208c013567ffffffffffffffff811115612b7457612b73612668565b5b612b808e828f01612774565b9250506101408c013567ffffffffffffffff811115612ba257612ba1612668565b5b612bae8e828f01612774565b9150509295989b509295989b9093969950565b600060208284031215612bd757612bd6612663565b5b600082013567ffffffffffffffff811115612bf557612bf4612668565b5b612c0184828501612774565b91505092915050565b6000610140830160008301518482036000860152612c288282612296565b91505060208301518482036020860152612c428282612296565b91505060408301518482036040860152612c5c8282612296565b91505060608301518482036060860152612c768282612296565b91505060808301518482036080860152612c908282612296565b91505060a083015184820360a0860152612caa8282612296565b91505060c083015184820360c0860152612cc48282612296565b91505060e083015184820360e0860152612cde8282612296565b915050610100830151848203610100860152612cfa8282612296565b915050610120830151848203610120860152612d168282612296565b9150508091505092915050565b60006020820190508181036000830152612d3d8184612c0a565b905092915050565b600080600080600060a08688031215612d6157612d60612663565b5b600086013567ffffffffffffffff811115612d7f57612d7e612668565b5b612d8b88828901612774565b955050602086013567ffffffffffffffff811115612dac57612dab612668565b5b612db888828901612774565b945050604086013567ffffffffffffffff811115612dd957612dd8612668565b5b612de588828901612774565b935050606086013567ffffffffffffffff811115612e0657612e05612668565b5b612e1288828901612774565b925050608086013567ffffffffffffffff811115612e3357612e32612668565b5b612e3f88828901612774565b9150509295509295909350565b600081519050919050565b600082825260208201905092915050565b6000819050602082019050919050565b6000610140830160008301518482036000860152612e968282612296565b91505060208301518482036020860152612eb08282612296565b91505060408301518482036040860152612eca8282612296565b91505060608301518482036060860152612ee48282612296565b91505060808301518482036080860152612efe8282612296565b91505060a083015184820360a0860152612f188282612296565b91505060c083015184820360c0860152612f328282612296565b91505060e083015184820360e0860152612f4c8282612296565b915050610100830151848203610100860152612f688282612296565b915050610120830151848203610120860152612f848282612296565b9150508091505092915050565b6000612f9d8383612e78565b905092915050565b6000602082019050919050565b6000612fbd82612e4c565b612fc78185612e57565b935083602082028501612fd985612e68565b8060005b858110156130155784840389528151612ff68582612f91565b945061300183612fa5565b925060208a01995050600181019050612fdd565b50829750879550505050505092915050565b600060208201905081810360008301526130418184612fb2565b905092915050565b600060608301600083015184820360008601526130668282612296565b915050602083015184820360208601526130808282612394565b9150506040830151848203604086015261309a82826124ce565b9150508091505092915050565b600060208201905081810360008301526130c18184613049565b905092915050565b60008115159050919050565b6130de816130c9565b82525050565b60006020820190506130f960008301846130d5565b92915050565b7f4e487b7100000000000000000000000000000000000000000000000000000000600052603260045260246000fd5b7f4e487b7100000000000000000000000000000000000000000000000000000000600052602260045260246000fd5b6000600282049050600182168061317557607f821691505b6020821081036131885761318761312e565b5b50919050565b600081905092915050565b60008190508160005260206000209050919050565b600081546131bb8161315d565b6131c5818661318e565b945060018216600081146131e057600181146131f157613224565b60ff19831686528186019350613224565b6131fa85613199565b60005b8381101561321c578154818901526001820191506020810190506131fd565b838801955050505b50505092915050565b600061323982846131ae565b915081905092915050565b7f4e487b7100000000000000000000000000000000000000000000000000000000600052601160045260246000fd5b6000819050919050565b600061328882613273565b91507fffffffffffffffffffffffffffffffffffffffffffffffffffffffffffffffff82036132ba576132b9613244565b5b600182019050919050565b60006132d082612236565b6132da818561318e565b93506132ea818560208601612252565b80840191505092915050565b600061330282846132c5565b915081905092915050565b600082825260208201905092915050565b7f50617469656e7420616c72656164792065786973747300000000000000000000600082015250565b600061335460168361330d565b915061335f8261331e565b602082019050919050565b6000602082019050818103600083015261338381613347565b9050919050565b7f5573657220646f6573206e6f7420657869737400000000000000000000000000600082015250565b60006133c060138361330d565b91506133cb8261338a565b602082019050919050565b600060208201905081810360008301526133ef816133b3565b9050919050565b7f557365722077697468207468697320494420616c726561647920657869737473600082015250565b600061342c60208361330d565b9150613437826133f6565b602082019050919050565b6000602082019050818103600083015261345b8161341f565b905091905056fea2646970667358221220792663bbb8cbd238333b091849684ca9240a3cd64bce6c31b4de15644b407fab64736f6c634300080d0033",
  "immutableReferences": {},
  "source": "// SPDX-License-Identifier: MIT\npragma solidity ^0.8.13;\n\ncontract MedicalRecords {\n    struct User {\n        string firstName;\n        string lastName;\n        string email;\n        string dateOfBirth;\n        string city;\n        string userAddress; // Renamed from 'address' to 'userAddress'\n        string role;\n        string country;\n        string gender;\n        string phoneNumbers;\n    }\n\n    struct Treatment {\n        string name;\n        string diseaseName;\n        string doctorName;\n        string treatmentDate;\n    }\n\n    struct Guardian {\n        string name;\n        string email;\n        string phone;\n        string relation;\n    }\n\n    struct Patient {\n        string userId;\n        Treatment[] treatmentHistory;\n        Guardian[] guardianInfo;\n    }\n\n    mapping(string => User) private users;\n    mapping(string => Patient) private patients;\n    string[] private userIDs; // Array to store all user IDs\n    string[] private patientIDs; // Array to store all patient IDs\n\n    // Function to add a user\n    function addUser(\n        string memory userId,\n        string memory firstName,\n        string memory lastName,\n        string memory email,\n        string memory dateOfBirth,\n        string memory city,\n        string memory userAddress,\n        string memory role,\n        string memory country,\n        string memory gender,\n        string memory phoneNumbers\n    ) public {\n        // Check if user already exists\n        require(!userExists(userId), \"User with this ID already exists\");\n\n        users[userId] = User({\n            firstName: firstName,\n            lastName: lastName,\n            email: email,\n            dateOfBirth: dateOfBirth,\n            city: city,\n            userAddress: userAddress,\n            role: role,\n            country: country,\n            gender: gender,\n            phoneNumbers: phoneNumbers\n        });\n        \n        userIDs.push(userId); // Add userId to the array of userIDs\n    }\n\n    // Function to get a user by userId\n    function getUser(string memory userId) public view returns (User memory) {\n        return users[userId];\n    }\n\n    // Function to add a patient\n    function addPatient(\n        string memory userId,\n        string memory patientId,\n        string memory treatmentName,\n        string memory diseaseName,\n        string memory doctorName,\n        string memory treatmentDate,\n        string memory guardianName,\n        string memory guardianEmail,\n        string memory guardianPhone,\n        string memory guardianRelation\n    ) public {\n        // Check if patient already exists\n        require(bytes(patients[userId].userId).length == 0, \"Patient already exists\");\n\n        // Check if the user exists\n        require(bytes(users[userId].firstName).length > 0, \"User does not exist\");\n\n        patients[userId].userId = userId;\n\n        addTreatmentToPatient(userId, treatmentName, diseaseName, doctorName, treatmentDate);\n\n        addGuardianToPatient(userId, guardianName, guardianEmail, guardianPhone, guardianRelation);\n\n        patientIDs.push(patientId); // Add patientId to the array of patientIDs\n    }\n\n    // Function to add treatment to a patient\n    function addTreatmentToPatient(\n        string memory patientId,\n        string memory treatmentName,\n        string memory diseaseName,\n        string memory doctorName,\n        string memory treatmentDate\n    ) public {\n        \n\n        Treatment memory treatment = Treatment({\n            name: treatmentName,\n            diseaseName: diseaseName,\n            doctorName: doctorName,\n            treatmentDate: treatmentDate\n        });\n\n        patients[patientId].treatmentHistory.push(treatment);\n    }\n\n    // Function to add guardian to a patient\n    function addGuardianToPatient(\n        string memory patientId,\n        string memory guardianName,\n        string memory guardianEmail,\n        string memory guardianPhone,\n        string memory guardianRelation\n    ) public {\n \n\n        Guardian memory guardian = Guardian({\n            name: guardianName,\n            email: guardianEmail,\n            phone: guardianPhone,\n            relation: guardianRelation\n        });\n\n        patients[patientId].guardianInfo.push(guardian);\n    }\n\n    // Function to get a patient by patientId\n    function getPatient(string memory patientId) public view returns (Patient memory) {\n        return patients[patientId];\n    }\n\n    // Function to retrieve all users\n    function getAllUsers() public view returns (User[] memory) {\n        User[] memory allUsers = new User[](userIDs.length);\n        for (uint i = 0; i < userIDs.length; i++) {\n            allUsers[i] = users[userIDs[i]];\n        }\n        return allUsers;\n    }\n\n    // Function to retrieve all patients\n    function getAllPatients() public view returns (Patient[] memory) {\n        Patient[] memory allPatients = new Patient[](patientIDs.length);\n        for (uint i = 0; i < patientIDs.length; i++) {\n            allPatients[i] = patients[patientIDs[i]];\n        }\n        return allPatients;\n    }\n\n    // Function to check if a user exists\n    function userExists(string memory userId) public view returns (bool) {\n        return bytes(users[userId].firstName).length > 0;\n    }\n}",
  "sourcePath": "/Users/apple/Desktop/AIC/project_w2/ganache_contracts/contracts/HealthcareRecords.sol",
  "compiler": {
    "name": "solc",
    "version": "0.8.13+commit.abaa5c0e.Emscripten.clang"
  },
  "schemaVersion": "3.4.4",
  "updatedAt": "2024-07-07T17:57:32.695Z",
  "networkType": "ethereum",
  "devdoc": {
    "kind": "dev",
    "methods": {},
    "version": 1
  },
  "userdoc": {
    "kind": "user",
    "methods": {},
    "version": 1
  }
}