{
  "contractName": "MedicalRecords",
  "abi": [
    {
      "inputs": [
        {
          "internalType": "string",
          "name": "userId",
          "type": "string"
        },
        {
          "internalType": "string",
          "name": "firstName",
          "type": "string"
        },
        {
          "internalType": "string",
          "name": "lastName",
          "type": "string"
        },
        {
          "internalType": "string",
          "name": "email",
          "type": "string"
        },
        {
          "internalType": "string",
          "name": "dateOfBirth",
          "type": "string"
        },
        {
          "internalType": "string",
          "name": "city",
          "type": "string"
        },
        {
          "internalType": "string",
          "name": "userAddress",
          "type": "string"
        },
        {
          "internalType": "string",
          "name": "role",
          "type": "string"
        },
        {
          "internalType": "string",
          "name": "country",
          "type": "string"
        },
        {
          "internalType": "string",
          "name": "gender",
          "type": "string"
        },
        {
          "internalType": "string",
          "name": "phoneNumbers",
          "type": "string"
        }
      ],
      "name": "addUser",
      "outputs": [],
      "stateMutability": "nonpayable",
      "type": "function"
    },
    {
      "inputs": [
        {
          "internalType": "string",
          "name": "userId",
          "type": "string"
        }
      ],
      "name": "getUser",
      "outputs": [
        {
          "components": [
            {
              "internalType": "string",
              "name": "firstName",
              "type": "string"
            },
            {
              "internalType": "string",
              "name": "lastName",
              "type": "string"
            },
            {
              "internalType": "string",
              "name": "email",
              "type": "string"
            },
            {
              "internalType": "string",
              "name": "dateOfBirth",
              "type": "string"
            },
            {
              "internalType": "string",
              "name": "city",
              "type": "string"
            },
            {
              "internalType": "string",
              "name": "userAddress",
              "type": "string"
            },
            {
              "internalType": "string",
              "name": "role",
              "type": "string"
            },
            {
              "internalType": "string",
              "name": "country",
              "type": "string"
            },
            {
              "internalType": "string",
              "name": "gender",
              "type": "string"
            },
            {
              "internalType": "string",
              "name": "phoneNumbers",
              "type": "string"
            }
          ],
          "internalType": "struct MedicalRecords.User",
          "name": "",
          "type": "tuple"
        }
      ],
      "stateMutability": "view",
      "type": "function",
      "constant": true
    },
    {
      "inputs": [
        {
          "internalType": "string",
          "name": "userId",
          "type": "string"
        },
        {
          "internalType": "string",
          "name": "patientId",
          "type": "string"
        },
        {
          "internalType": "string",
          "name": "treatmentName",
          "type": "string"
        },
        {
          "internalType": "string",
          "name": "diseaseName",
          "type": "string"
        },
        {
          "internalType": "string",
          "name": "doctorName",
          "type": "string"
        },
        {
          "internalType": "string",
          "name": "treatmentDate",
          "type": "string"
        },
        {
          "internalType": "string",
          "name": "guardianName",
          "type": "string"
        },
        {
          "internalType": "string",
          "name": "guardianEmail",
          "type": "string"
        },
        {
          "internalType": "string",
          "name": "guardianPhone",
          "type": "string"
        },
        {
          "internalType": "string",
          "name": "guardianRelation",
          "type": "string"
        }
      ],
      "name": "addPatient",
      "outputs": [],
      "stateMutability": "nonpayable",
      "type": "function"
    },
    {
      "inputs": [
        {
          "internalType": "string",
          "name": "patientId",
          "type": "string"
        }
      ],
      "name": "getPatient",
      "outputs": [
        {
          "components": [
            {
              "internalType": "string",
              "name": "userId",
              "type": "string"
            },
            {
              "components": [
                {
                  "internalType": "string",
                  "name": "name",
                  "type": "string"
                },
                {
                  "internalType": "string",
                  "name": "diseaseName",
                  "type": "string"
                },
                {
                  "internalType": "string",
                  "name": "doctorName",
                  "type": "string"
                },
                {
                  "internalType": "string",
                  "name": "treatmentDate",
                  "type": "string"
                }
              ],
              "internalType": "struct MedicalRecords.Treatment[]",
              "name": "treatmentHistory",
              "type": "tuple[]"
            },
            {
              "components": [
                {
                  "internalType": "string",
                  "name": "name",
                  "type": "string"
                },
                {
                  "internalType": "string",
                  "name": "email",
                  "type": "string"
                },
                {
                  "internalType": "string",
                  "name": "phone",
                  "type": "string"
                },
                {
                  "internalType": "string",
                  "name": "relation",
                  "type": "string"
                }
              ],
              "internalType": "struct MedicalRecords.Guardian[]",
              "name": "guardianInfo",
              "type": "tuple[]"
            }
          ],
          "internalType": "struct MedicalRecords.Patient",
          "name": "",
          "type": "tuple"
        }
      ],
      "stateMutability": "view",
      "type": "function",
      "constant": true
    },
    {
      "inputs": [],
      "name": "getAllUsers",
      "outputs": [
        {
          "components": [
            {
              "internalType": "string",
              "name": "firstName",
              "type": "string"
            },
            {
              "internalType": "string",
              "name": "lastName",
              "type": "string"
            },
            {
              "internalType": "string",
              "name": "email",
              "type": "string"
            },
            {
              "internalType": "string",
              "name": "dateOfBirth",
              "type": "string"
            },
            {
              "internalType": "string",
              "name": "city",
              "type": "string"
            },
            {
              "internalType": "string",
              "name": "userAddress",
              "type": "string"
            },
            {
              "internalType": "string",
              "name": "role",
              "type": "string"
            },
            {
              "internalType": "string",
              "name": "country",
              "type": "string"
            },
            {
              "internalType": "string",
              "name": "gender",
              "type": "string"
            },
            {
              "internalType": "string",
              "name": "phoneNumbers",
              "type": "string"
            }
          ],
          "internalType": "struct MedicalRecords.User[]",
          "name": "",
          "type": "tuple[]"
        }
      ],
      "stateMutability": "view",
      "type": "function",
      "constant": true
    },
    {
      "inputs": [],
      "name": "getAllPatients",
      "outputs": [
        {
          "components": [
            {
              "internalType": "string",
              "name": "userId",
              "type": "string"
            },
            {
              "components": [
                {
                  "internalType": "string",
                  "name": "name",
                  "type": "string"
                },
                {
                  "internalType": "string",
                  "name": "diseaseName",
                  "type": "string"
                },
                {
                  "internalType": "string",
                  "name": "doctorName",
                  "type": "string"
                },
                {
                  "internalType": "string",
                  "name": "treatmentDate",
                  "type": "string"
                }
              ],
              "internalType": "struct MedicalRecords.Treatment[]",
              "name": "treatmentHistory",
              "type": "tuple[]"
            },
            {
              "components": [
                {
                  "internalType": "string",
                  "name": "name",
                  "type": "string"
                },
                {
                  "internalType": "string",
                  "name": "email",
                  "type": "string"
                },
                {
                  "internalType": "string",
                  "name": "phone",
                  "type": "string"
                },
                {
                  "internalType": "string",
                  "name": "relation",
                  "type": "string"
                }
              ],
              "internalType": "struct MedicalRecords.Guardian[]",
              "name": "guardianInfo",
              "type": "tuple[]"
            }
          ],
          "internalType": "struct MedicalRecords.Patient[]",
          "name": "",
          "type": "tuple[]"
        }
      ],
      "stateMutability": "view",
      "type": "function",
      "constant": true
    },
    {
      "inputs": [
        {
          "internalType": "string",
          "name": "userId",
          "type": "string"
        }
      ],
      "name": "userExists",
      "outputs": [
        {
          "internalType": "bool",
          "name": "",
          "type": "bool"
        }
      ],
      "stateMutability": "view",
      "type": "function",
      "constant": true
    }
  ],
  "bytecode": "0x608060405234801561001057600080fd5b50613343806100206000396000f3fe608060405234801561001057600080fd5b506004361061007d5760003560e01c806331feb6711161005b57806331feb671146100d8578063e2842d7914610108578063e79a7a2e14610126578063fddc968e146101565761007d565b806318a231a9146100825780631ed6ad1b146100a0578063311cc831146100bc575b600080fd5b61008a610186565b60405161009791906125e9565b60405180910390f35b6100ba60048036038101906100b59190612754565b610854565b005b6100d660048036038101906100d1919061294b565b6109cb565b005b6100f260048036038101906100ed9190612b73565b610be8565b6040516100ff9190612cd5565b60405180910390f35b6101106111d5565b60405161011d9190612ed2565b60405180910390f35b610140600480360381019061013b9190612b73565b611878565b60405161014d9190612f52565b60405180910390f35b610170600480360381019061016b9190612b73565b611e90565b60405161017d9190612f8f565b60405180910390f35b6060600060038054905067ffffffffffffffff8111156101a9576101a8612629565b5b6040519080825280602002602001820160405280156101e257816020015b6101cf6120a5565b8152602001906001900390816101c75790505b50905060005b60038054905081101561084c5760016003828154811061020b5761020a612faa565b5b9060005260206000200160405161022291906130d8565b908152602001604051809103902060405180606001604052908160008201805461024b90613008565b80601f016020809104026020016040519081016040528092919081815260200182805461027790613008565b80156102c45780601f10610299576101008083540402835291602001916102c4565b820191906000526020600020905b8154815290600101906020018083116102a757829003601f168201915b5050505050815260200160018201805480602002602001604051908101604052809291908181526020016000905b8282101561056c578382906000526020600020906004020160405180608001604052908160008201805461032590613008565b80601f016020809104026020016040519081016040528092919081815260200182805461035190613008565b801561039e5780601f106103735761010080835404028352916020019161039e565b820191906000526020600020905b81548152906001019060200180831161038157829003601f168201915b505050505081526020016001820180546103b790613008565b80601f01602080910402602001604051908101604052809291908181526020018280546103e390613008565b80156104305780601f1061040557610100808354040283529160200191610430565b820191906000526020600020905b81548152906001019060200180831161041357829003601f168201915b5050505050815260200160028201805461044990613008565b80601f016020809104026020016040519081016040528092919081815260200182805461047590613008565b80156104c25780601f10610497576101008083540402835291602001916104c2565b820191906000526020600020905b8154815290600101906020018083116104a557829003601f168201915b505050505081526020016003820180546104db90613008565b80601f016020809104026020016040519081016040528092919081815260200182805461050790613008565b80156105545780601f1061052957610100808354040283529160200191610554565b820191906000526020600020905b81548152906001019060200180831161053757829003601f168201915b505050505081525050815260200190600101906102f2565b50505050815260200160028201805480602002602001604051908101604052809291908181526020016000905b8282101561081357838290600052602060002090600402016040518060800160405290816000820180546105cc90613008565b80601f01602080910402602001604051908101604052809291908181526020018280546105f890613008565b80156106455780601f1061061a57610100808354040283529160200191610645565b820191906000526020600020905b81548152906001019060200180831161062857829003601f168201915b5050505050815260200160018201805461065e90613008565b80601f016020809104026020016040519081016040528092919081815260200182805461068a90613008565b80156106d75780601f106106ac576101008083540402835291602001916106d7565b820191906000526020600020905b8154815290600101906020018083116106ba57829003601f168201915b505050505081526020016002820180546106f090613008565b80601f016020809104026020016040519081016040528092919081815260200182805461071c90613008565b80156107695780601f1061073e57610100808354040283529160200191610769565b820191906000526020600020905b81548152906001019060200180831161074c57829003601f168201915b5050505050815260200160038201805461078290613008565b80601f01602080910402602001604051908101604052809291908181526020018280546107ae90613008565b80156107fb5780601f106107d0576101008083540402835291602001916107fb565b820191906000526020600020905b8154815290600101906020018083116107de57829003601f168201915b50505050508152505081526020019060010190610599565b505050508152505082828151811061082e5761082d612faa565b5b6020026020010181905250808061084490613128565b9150506101e8565b508091505090565b600060018b60405161086691906131a1565b9081526020016040518091039020600001805461088290613008565b9050146108c4576040517f08c379a00000000000000000000000000000000000000000000000000000000081526004016108bb90613215565b60405180910390fd5b6000808b6040516108d591906131a1565b908152602001604051809103902060000180546108f190613008565b905011610933576040517f08c379a000000000000000000000000000000000000000000000000000000000815260040161092a90613281565b60405180910390fd5b8960018b60405161094491906131a1565b908152602001604051809103902060000190805190602001906109689291906120c6565b506109768a89898989611ec9565b6109838a85858585611fb7565b6003899080600181540180825580915050600190039060005260206000200160009091909190915090805190602001906109be9291906120c6565b5050505050505050505050565b6109d48b611e90565b15610a14576040517f08c379a0000000000000000000000000000000000000000000000000000000008152600401610a0b906132ed565b60405180910390fd5b6040518061014001604052808b81526020018a81526020018981526020018881526020018781526020018681526020018581526020018481526020018381526020018281525060008c604051610a6a91906131a1565b90815260200160405180910390206000820151816000019080519060200190610a949291906120c6565b506020820151816001019080519060200190610ab19291906120c6565b506040820151816002019080519060200190610ace9291906120c6565b506060820151816003019080519060200190610aeb9291906120c6565b506080820151816004019080519060200190610b089291906120c6565b5060a0820151816005019080519060200190610b259291906120c6565b5060c0820151816006019080519060200190610b429291906120c6565b5060e0820151816007019080519060200190610b5f9291906120c6565b50610100820151816008019080519060200190610b7d9291906120c6565b50610120820151816009019080519060200190610b9b9291906120c6565b5090505060028b908060018154018082558091505060019003906000526020600020016000909190919091509080519060200190610bda9291906120c6565b505050505050505050505050565b610bf061214c565b600082604051610c0091906131a1565b908152602001604051809103902060405180610140016040529081600082018054610c2a90613008565b80601f0160208091040260200160405190810160405280929190818152602001828054610c5690613008565b8015610ca35780601f10610c7857610100808354040283529160200191610ca3565b820191906000526020600020905b815481529060010190602001808311610c8657829003601f168201915b50505050508152602001600182018054610cbc90613008565b80601f0160208091040260200160405190810160405280929190818152602001828054610ce890613008565b8015610d355780601f10610d0a57610100808354040283529160200191610d35565b820191906000526020600020905b815481529060010190602001808311610d1857829003601f168201915b50505050508152602001600282018054610d4e90613008565b80601f0160208091040260200160405190810160405280929190818152602001828054610d7a90613008565b8015610dc75780601f10610d9c57610100808354040283529160200191610dc7565b820191906000526020600020905b815481529060010190602001808311610daa57829003601f168201915b50505050508152602001600382018054610de090613008565b80601f0160208091040260200160405190810160405280929190818152602001828054610e0c90613008565b8015610e595780601f10610e2e57610100808354040283529160200191610e59565b820191906000526020600020905b815481529060010190602001808311610e3c57829003601f168201915b50505050508152602001600482018054610e7290613008565b80601f0160208091040260200160405190810160405280929190818152602001828054610e9e90613008565b8015610eeb5780601f10610ec057610100808354040283529160200191610eeb565b820191906000526020600020905b815481529060010190602001808311610ece57829003601f168201915b50505050508152602001600582018054610f0490613008565b80601f0160208091040260200160405190810160405280929190818152602001828054610f3090613008565b8015610f7d5780601f10610f5257610100808354040283529160200191610f7d565b820191906000526020600020905b815481529060010190602001808311610f6057829003601f168201915b50505050508152602001600682018054610f9690613008565b80601f0160208091040260200160405190810160405280929190818152602001828054610fc290613008565b801561100f5780601f10610fe45761010080835404028352916020019161100f565b820191906000526020600020905b815481529060010190602001808311610ff257829003601f168201915b5050505050815260200160078201805461102890613008565b80601f016020809104026020016040519081016040528092919081815260200182805461105490613008565b80156110a15780601f10611076576101008083540402835291602001916110a1565b820191906000526020600020905b81548152906001019060200180831161108457829003601f168201915b505050505081526020016008820180546110ba90613008565b80601f01602080910402602001604051908101604052809291908181526020018280546110e690613008565b80156111335780601f1061110857610100808354040283529160200191611133565b820191906000526020600020905b81548152906001019060200180831161111657829003601f168201915b5050505050815260200160098201805461114c90613008565b80601f016020809104026020016040519081016040528092919081815260200182805461117890613008565b80156111c55780601f1061119a576101008083540402835291602001916111c5565b820191906000526020600020905b8154815290600101906020018083116111a857829003601f168201915b5050505050815250509050919050565b6060600060028054905067ffffffffffffffff8111156111f8576111f7612629565b5b60405190808252806020026020018201604052801561123157816020015b61121e61214c565b8152602001906001900390816112165790505b50905060005b6002805490508110156118705760006002828154811061125a57611259612faa565b5b9060005260206000200160405161127191906130d8565b90815260200160405180910390206040518061014001604052908160008201805461129b90613008565b80601f01602080910402602001604051908101604052809291908181526020018280546112c790613008565b80156113145780601f106112e957610100808354040283529160200191611314565b820191906000526020600020905b8154815290600101906020018083116112f757829003601f168201915b5050505050815260200160018201805461132d90613008565b80601f016020809104026020016040519081016040528092919081815260200182805461135990613008565b80156113a65780601f1061137b576101008083540402835291602001916113a6565b820191906000526020600020905b81548152906001019060200180831161138957829003601f168201915b505050505081526020016002820180546113bf90613008565b80601f01602080910402602001604051908101604052809291908181526020018280546113eb90613008565b80156114385780601f1061140d57610100808354040283529160200191611438565b820191906000526020600020905b81548152906001019060200180831161141b57829003601f168201915b5050505050815260200160038201805461145190613008565b80601f016020809104026020016040519081016040528092919081815260200182805461147d90613008565b80156114ca5780601f1061149f576101008083540402835291602001916114ca565b820191906000526020600020905b8154815290600101906020018083116114ad57829003601f168201915b505050505081526020016004820180546114e390613008565b80601f016020809104026020016040519081016040528092919081815260200182805461150f90613008565b801561155c5780601f106115315761010080835404028352916020019161155c565b820191906000526020600020905b81548152906001019060200180831161153f57829003601f168201915b5050505050815260200160058201805461157590613008565b80601f01602080910402602001604051908101604052809291908181526020018280546115a190613008565b80156115ee5780601f106115c3576101008083540402835291602001916115ee565b820191906000526020600020905b8154815290600101906020018083116115d157829003601f168201915b5050505050815260200160068201805461160790613008565b80601f016020809104026020016040519081016040528092919081815260200182805461163390613008565b80156116805780601f1061165557610100808354040283529160200191611680565b820191906000526020600020905b81548152906001019060200180831161166357829003601f168201915b5050505050815260200160078201805461169990613008565b80601f01602080910402602001604051908101604052809291908181526020018280546116c590613008565b80156117125780601f106116e757610100808354040283529160200191611712565b820191906000526020600020905b8154815290600101906020018083116116f557829003601f168201915b5050505050815260200160088201805461172b90613008565b80601f016020809104026020016040519081016040528092919081815260200182805461175790613008565b80156117a45780601f10611779576101008083540402835291602001916117a4565b820191906000526020600020905b81548152906001019060200180831161178757829003601f168201915b505050505081526020016009820180546117bd90613008565b80601f01602080910402602001604051908101604052809291908181526020018280546117e990613008565b80156118365780601f1061180b57610100808354040283529160200191611836565b820191906000526020600020905b81548152906001019060200180831161181957829003601f168201915b50505050508152505082828151811061185257611851612faa565b5b6020026020010181905250808061186890613128565b915050611237565b508091505090565b6118806120a5565b60018260405161189091906131a1565b90815260200160405180910390206040518060600160405290816000820180546118b990613008565b80601f01602080910402602001604051908101604052809291908181526020018280546118e590613008565b80156119325780601f1061190757610100808354040283529160200191611932565b820191906000526020600020905b81548152906001019060200180831161191557829003601f168201915b5050505050815260200160018201805480602002602001604051908101604052809291908181526020016000905b82821015611bda578382906000526020600020906004020160405180608001604052908160008201805461199390613008565b80601f01602080910402602001604051908101604052809291908181526020018280546119bf90613008565b8015611a0c5780601f106119e157610100808354040283529160200191611a0c565b820191906000526020600020905b8154815290600101906020018083116119ef57829003601f168201915b50505050508152602001600182018054611a2590613008565b80601f0160208091040260200160405190810160405280929190818152602001828054611a5190613008565b8015611a9e5780601f10611a7357610100808354040283529160200191611a9e565b820191906000526020600020905b815481529060010190602001808311611a8157829003601f168201915b50505050508152602001600282018054611ab790613008565b80601f0160208091040260200160405190810160405280929190818152602001828054611ae390613008565b8015611b305780601f10611b0557610100808354040283529160200191611b30565b820191906000526020600020905b815481529060010190602001808311611b1357829003601f168201915b50505050508152602001600382018054611b4990613008565b80601f0160208091040260200160405190810160405280929190818152602001828054611b7590613008565b8015611bc25780601f10611b9757610100808354040283529160200191611bc2565b820191906000526020600020905b815481529060010190602001808311611ba557829003601f168201915b50505050508152505081526020019060010190611960565b50505050815260200160028201805480602002602001604051908101604052809291908181526020016000905b82821015611e815783829060005260206000209060040201604051806080016040529081600082018054611c3a90613008565b80601f0160208091040260200160405190810160405280929190818152602001828054611c6690613008565b8015611cb35780601f10611c8857610100808354040283529160200191611cb3565b820191906000526020600020905b815481529060010190602001808311611c9657829003601f168201915b50505050508152602001600182018054611ccc90613008565b80601f0160208091040260200160405190810160405280929190818152602001828054611cf890613008565b8015611d455780601f10611d1a57610100808354040283529160200191611d45565b820191906000526020600020905b815481529060010190602001808311611d2857829003601f168201915b50505050508152602001600282018054611d5e90613008565b80601f0160208091040260200160405190810160405280929190818152602001828054611d8a90613008565b8015611dd75780601f10611dac57610100808354040283529160200191611dd7565b820191906000526020600020905b815481529060010190602001808311611dba57829003601f168201915b50505050508152602001600382018054611df090613008565b80601f0160208091040260200160405190810160405280929190818152602001828054611e1c90613008565b8015611e695780601f10611e3e57610100808354040283529160200191611e69565b820191906000526020600020905b815481529060010190602001808311611e4c57829003601f168201915b50505050508152505081526020019060010190611c07565b50505050815250509050919050565b600080600083604051611ea391906131a1565b90815260200160405180910390206000018054611ebf90613008565b9050119050919050565b60006040518060800160405280868152602001858152602001848152602001838152509050600186604051611efe91906131a1565b90815260200160405180910390206001018190806001815401808255809150506001900390600052602060002090600402016000909190919091506000820151816000019080519060200190611f559291906120c6565b506020820151816001019080519060200190611f729291906120c6565b506040820151816002019080519060200190611f8f9291906120c6565b506060820151816003019080519060200190611fac9291906120c6565b505050505050505050565b60006040518060800160405280868152602001858152602001848152602001838152509050600186604051611fec91906131a1565b908152602001604051809103902060020181908060018154018082558091505060019003906000526020600020906004020160009091909190915060008201518160000190805190602001906120439291906120c6565b5060208201518160010190805190602001906120609291906120c6565b50604082015181600201908051906020019061207d9291906120c6565b50606082015181600301908051906020019061209a9291906120c6565b505050505050505050565b60405180606001604052806060815260200160608152602001606081525090565b8280546120d290613008565b90600052602060002090601f0160209004810192826120f4576000855561213b565b82601f1061210d57805160ff191683800117855561213b565b8280016001018555821561213b579182015b8281111561213a57825182559160200191906001019061211f565b5b509050612148919061219f565b5090565b604051806101400160405280606081526020016060815260200160608152602001606081526020016060815260200160608152602001606081526020016060815260200160608152602001606081525090565b5b808211156121b85760008160009055506001016121a0565b5090565b600081519050919050565b600082825260208201905092915050565b6000819050602082019050919050565b600081519050919050565b600082825260208201905092915050565b60005b83811015612222578082015181840152602081019050612207565b83811115612231576000848401525b50505050565b6000601f19601f8301169050919050565b6000612253826121e8565b61225d81856121f3565b935061226d818560208601612204565b61227681612237565b840191505092915050565b600081519050919050565b600082825260208201905092915050565b6000819050602082019050919050565b600060808301600083015184820360008601526122ca8282612248565b915050602083015184820360208601526122e48282612248565b915050604083015184820360408601526122fe8282612248565b915050606083015184820360608601526123188282612248565b9150508091505092915050565b600061233183836122ad565b905092915050565b6000602082019050919050565b600061235182612281565b61235b818561228c565b93508360208202850161236d8561229d565b8060005b858110156123a9578484038952815161238a8582612325565b945061239583612339565b925060208a01995050600181019050612371565b50829750879550505050505092915050565b600081519050919050565b600082825260208201905092915050565b6000819050602082019050919050565b600060808301600083015184820360008601526124048282612248565b9150506020830151848203602086015261241e8282612248565b915050604083015184820360408601526124388282612248565b915050606083015184820360608601526124528282612248565b9150508091505092915050565b600061246b83836123e7565b905092915050565b6000602082019050919050565b600061248b826123bb565b61249581856123c6565b9350836020820285016124a7856123d7565b8060005b858110156124e357848403895281516124c4858261245f565b94506124cf83612473565b925060208a019950506001810190506124ab565b50829750879550505050505092915050565b600060608301600083015184820360008601526125128282612248565b9150506020830151848203602086015261252c8282612346565b915050604083015184820360408601526125468282612480565b9150508091505092915050565b600061255f83836124f5565b905092915050565b6000602082019050919050565b600061257f826121bc565b61258981856121c7565b93508360208202850161259b856121d8565b8060005b858110156125d757848403895281516125b88582612553565b94506125c383612567565b925060208a0199505060018101905061259f565b50829750879550505050505092915050565b600060208201905081810360008301526126038184612574565b905092915050565b6000604051905090565b600080fd5b600080fd5b600080fd5b600080fd5b7f4e487b7100000000000000000000000000000000000000000000000000000000600052604160045260246000fd5b61266182612237565b810181811067ffffffffffffffff821117156126805761267f612629565b5b80604052505050565b600061269361260b565b905061269f8282612658565b919050565b600067ffffffffffffffff8211156126bf576126be612629565b5b6126c882612237565b9050602081019050919050565b82818337600083830152505050565b60006126f76126f2846126a4565b612689565b90508281526020810184848401111561271357612712612624565b5b61271e8482856126d5565b509392505050565b600082601f83011261273b5761273a61261f565b5b813561274b8482602086016126e4565b91505092915050565b6000806000806000806000806000806101408b8d03121561277857612777612615565b5b60008b013567ffffffffffffffff8111156127965761279561261a565b5b6127a28d828e01612726565b9a505060208b013567ffffffffffffffff8111156127c3576127c261261a565b5b6127cf8d828e01612726565b99505060408b013567ffffffffffffffff8111156127f0576127ef61261a565b5b6127fc8d828e01612726565b98505060608b013567ffffffffffffffff81111561281d5761281c61261a565b5b6128298d828e01612726565b97505060808b013567ffffffffffffffff81111561284a5761284961261a565b5b6128568d828e01612726565b96505060a08b013567ffffffffffffffff8111156128775761287661261a565b5b6128838d828e01612726565b95505060c08b013567ffffffffffffffff8111156128a4576128a361261a565b5b6128b08d828e01612726565b94505060e08b013567ffffffffffffffff8111156128d1576128d061261a565b5b6128dd8d828e01612726565b9350506101008b013567ffffffffffffffff8111156128ff576128fe61261a565b5b61290b8d828e01612726565b9250506101208b013567ffffffffffffffff81111561292d5761292c61261a565b5b6129398d828e01612726565b9150509295989b9194979a5092959850565b60008060008060008060008060008060006101608c8e03121561297157612970612615565b5b60008c013567ffffffffffffffff81111561298f5761298e61261a565b5b61299b8e828f01612726565b9b505060208c013567ffffffffffffffff8111156129bc576129bb61261a565b5b6129c88e828f01612726565b9a505060408c013567ffffffffffffffff8111156129e9576129e861261a565b5b6129f58e828f01612726565b99505060608c013567ffffffffffffffff811115612a1657612a1561261a565b5b612a228e828f01612726565b98505060808c013567ffffffffffffffff811115612a4357612a4261261a565b5b612a4f8e828f01612726565b97505060a08c013567ffffffffffffffff811115612a7057612a6f61261a565b5b612a7c8e828f01612726565b96505060c08c013567ffffffffffffffff811115612a9d57612a9c61261a565b5b612aa98e828f01612726565b95505060e08c013567ffffffffffffffff811115612aca57612ac961261a565b5b612ad68e828f01612726565b9450506101008c013567ffffffffffffffff811115612af857612af761261a565b5b612b048e828f01612726565b9350506101208c013567ffffffffffffffff811115612b2657612b2561261a565b5b612b328e828f01612726565b9250506101408c013567ffffffffffffffff811115612b5457612b5361261a565b5b612b608e828f01612726565b9150509295989b509295989b9093969950565b600060208284031215612b8957612b88612615565b5b600082013567ffffffffffffffff811115612ba757612ba661261a565b5b612bb384828501612726565b91505092915050565b6000610140830160008301518482036000860152612bda8282612248565b91505060208301518482036020860152612bf48282612248565b91505060408301518482036040860152612c0e8282612248565b91505060608301518482036060860152612c288282612248565b91505060808301518482036080860152612c428282612248565b91505060a083015184820360a0860152612c5c8282612248565b91505060c083015184820360c0860152612c768282612248565b91505060e083015184820360e0860152612c908282612248565b915050610100830151848203610100860152612cac8282612248565b915050610120830151848203610120860152612cc88282612248565b9150508091505092915050565b60006020820190508181036000830152612cef8184612bbc565b905092915050565b600081519050919050565b600082825260208201905092915050565b6000819050602082019050919050565b6000610140830160008301518482036000860152612d418282612248565b91505060208301518482036020860152612d5b8282612248565b91505060408301518482036040860152612d758282612248565b91505060608301518482036060860152612d8f8282612248565b91505060808301518482036080860152612da98282612248565b91505060a083015184820360a0860152612dc38282612248565b91505060c083015184820360c0860152612ddd8282612248565b91505060e083015184820360e0860152612df78282612248565b915050610100830151848203610100860152612e138282612248565b915050610120830151848203610120860152612e2f8282612248565b9150508091505092915050565b6000612e488383612d23565b905092915050565b6000602082019050919050565b6000612e6882612cf7565b612e728185612d02565b935083602082028501612e8485612d13565b8060005b85811015612ec05784840389528151612ea18582612e3c565b9450612eac83612e50565b925060208a01995050600181019050612e88565b50829750879550505050505092915050565b60006020820190508181036000830152612eec8184612e5d565b905092915050565b60006060830160008301518482036000860152612f118282612248565b91505060208301518482036020860152612f2b8282612346565b91505060408301518482036040860152612f458282612480565b9150508091505092915050565b60006020820190508181036000830152612f6c8184612ef4565b905092915050565b60008115159050919050565b612f8981612f74565b82525050565b6000602082019050612fa46000830184612f80565b92915050565b7f4e487b7100000000000000000000000000000000000000000000000000000000600052603260045260246000fd5b7f4e487b7100000000000000000000000000000000000000000000000000000000600052602260045260246000fd5b6000600282049050600182168061302057607f821691505b60208210810361303357613032612fd9565b5b50919050565b600081905092915050565b60008190508160005260206000209050919050565b6000815461306681613008565b6130708186613039565b9450600182166000811461308b576001811461309c576130cf565b60ff198316865281860193506130cf565b6130a585613044565b60005b838110156130c7578154818901526001820191506020810190506130a8565b838801955050505b50505092915050565b60006130e48284613059565b915081905092915050565b7f4e487b7100000000000000000000000000000000000000000000000000000000600052601160045260246000fd5b6000819050919050565b60006131338261311e565b91507fffffffffffffffffffffffffffffffffffffffffffffffffffffffffffffffff8203613165576131646130ef565b5b600182019050919050565b600061317b826121e8565b6131858185613039565b9350613195818560208601612204565b80840191505092915050565b60006131ad8284613170565b915081905092915050565b600082825260208201905092915050565b7f50617469656e7420616c72656164792065786973747300000000000000000000600082015250565b60006131ff6016836131b8565b915061320a826131c9565b602082019050919050565b6000602082019050818103600083015261322e816131f2565b9050919050565b7f5573657220646f6573206e6f7420657869737400000000000000000000000000600082015250565b600061326b6013836131b8565b915061327682613235565b602082019050919050565b6000602082019050818103600083015261329a8161325e565b9050919050565b7f557365722077697468207468697320494420616c726561647920657869737473600082015250565b60006132d76020836131b8565b91506132e2826132a1565b602082019050919050565b60006020820190508181036000830152613306816132ca565b905091905056fea26469706673582212206d02b499327977054db6a78c2e1ebae8c7465caa91e738b56bb33fc54a6271dd64736f6c634300080d0033",
  "immutableReferences": {},
  "source": "// SPDX-License-Identifier: MIT\npragma solidity ^0.8.13;\n\ncontract MedicalRecords {\n    struct User {\n        string firstName;\n        string lastName;\n        string email;\n        string dateOfBirth;\n        string city;\n        string userAddress; // Renamed from 'address' to 'userAddress'\n        string role;\n        string country;\n        string gender;\n        string phoneNumbers;\n    }\n\n    struct Treatment {\n        string name;\n        string diseaseName;\n        string doctorName;\n        string treatmentDate;\n    }\n\n    struct Guardian {\n        string name;\n        string email;\n        string phone;\n        string relation;\n    }\n\n    struct Patient {\n        string userId;\n        Treatment[] treatmentHistory;\n        Guardian[] guardianInfo;\n    }\n\n    mapping(string => User) private users;\n    mapping(string => Patient) private patients;\n    string[] private userIDs; // Array to store all user IDs\n    string[] private patientIDs; // Array to store all patient IDs\n\n    // Function to add a user\n    function addUser(\n        string memory userId,\n        string memory firstName,\n        string memory lastName,\n        string memory email,\n        string memory dateOfBirth,\n        string memory city,\n        string memory userAddress,\n        string memory role,\n        string memory country,\n        string memory gender,\n        string memory phoneNumbers\n    ) public {\n        // Check if user already exists\n        require(!userExists(userId), \"User with this ID already exists\");\n\n        users[userId] = User({\n            firstName: firstName,\n            lastName: lastName,\n            email: email,\n            dateOfBirth: dateOfBirth,\n            city: city,\n            userAddress: userAddress,\n            role: role,\n            country: country,\n            gender: gender,\n            phoneNumbers: phoneNumbers\n        });\n        \n        userIDs.push(userId); // Add userId to the array of userIDs\n    }\n\n    // Function to get a user by userId\n    function getUser(string memory userId) public view returns (User memory) {\n        return users[userId];\n    }\n\n    // Function to add a patient\n    function addPatient(\n        string memory userId,\n        string memory patientId,\n        string memory treatmentName,\n        string memory diseaseName,\n        string memory doctorName,\n        string memory treatmentDate,\n        string memory guardianName,\n        string memory guardianEmail,\n        string memory guardianPhone,\n        string memory guardianRelation\n    ) public {\n        // Check if patient already exists\n        require(bytes(patients[userId].userId).length == 0, \"Patient already exists\");\n\n        // Check if the user exists\n        require(bytes(users[userId].firstName).length > 0, \"User does not exist\");\n\n        patients[userId].userId = userId;\n\n        addTreatmentToPatient(userId, treatmentName, diseaseName, doctorName, treatmentDate);\n\n        addGuardianToPatient(userId, guardianName, guardianEmail, guardianPhone, guardianRelation);\n\n        patientIDs.push(patientId); // Add patientId to the array of patientIDs\n    }\n\n    // Function to add treatment to a patient\n    function addTreatmentToPatient(\n        string memory patientId,\n        string memory treatmentName,\n        string memory diseaseName,\n        string memory doctorName,\n        string memory treatmentDate\n    ) private {\n        \n\n        Treatment memory treatment = Treatment({\n            name: treatmentName,\n            diseaseName: diseaseName,\n            doctorName: doctorName,\n            treatmentDate: treatmentDate\n        });\n\n        patients[patientId].treatmentHistory.push(treatment);\n    }\n\n    // Function to add guardian to a patient\n    function addGuardianToPatient(\n        string memory patientId,\n        string memory guardianName,\n        string memory guardianEmail,\n        string memory guardianPhone,\n        string memory guardianRelation\n    ) private {\n \n\n        Guardian memory guardian = Guardian({\n            name: guardianName,\n            email: guardianEmail,\n            phone: guardianPhone,\n            relation: guardianRelation\n        });\n\n        patients[patientId].guardianInfo.push(guardian);\n    }\n\n    // Function to get a patient by patientId\n    function getPatient(string memory patientId) public view returns (Patient memory) {\n        return patients[patientId];\n    }\n\n    // Function to retrieve all users\n    function getAllUsers() public view returns (User[] memory) {\n        User[] memory allUsers = new User[](userIDs.length);\n        for (uint i = 0; i < userIDs.length; i++) {\n            allUsers[i] = users[userIDs[i]];\n        }\n        return allUsers;\n    }\n\n    // Function to retrieve all patients\n    function getAllPatients() public view returns (Patient[] memory) {\n        Patient[] memory allPatients = new Patient[](patientIDs.length);\n        for (uint i = 0; i < patientIDs.length; i++) {\n            allPatients[i] = patients[patientIDs[i]];\n        }\n        return allPatients;\n    }\n\n    // Function to check if a user exists\n    function userExists(string memory userId) public view returns (bool) {\n        return bytes(users[userId].firstName).length > 0;\n    }\n}",
  "sourcePath": "/Users/batoolfatima/Desktop/AIC/project_w2/ganache_contracts/contracts/HealthcareRecords.sol",
  "compiler": {
    "name": "solc",
    "version": "0.8.13+commit.abaa5c0e.Emscripten.clang"
  },
  "schemaVersion": "3.4.16",
  "updatedAt": "2024-07-07T01:21:05.052Z",
  "networkType": "ethereum",
  "devdoc": {
    "kind": "dev",
    "methods": {},
    "version": 1
  },
  "userdoc": {
    "kind": "user",
    "methods": {},
    "version": 1
  }
}